:020000040800F2
:1000000038050020D5000008E11200085B12000846
:1000100000000000000000000000000000000000E0
:10002000000000000000000000000000E5120008D1
:100030000000000000000000E3120008E7120008C2
:10004000E7000008E7000008E7000008E7000008F4
:10005000E7000008E7000008E7000008E7000008E4
:10006000E7000008E7000008E7000008E7000008D4
:10007000E7000008E7000008E7000008E7000008C4
:10008000E7000008E700000800000000E7000008A3
:10009000E7000008E7000008E7000008E7000008A4
:1000A000E7000008E7000008E7000008E700000894
:1000B000E700000800000000E7000008044885464B
:1000C00000F036FB00480047F5200008C046C04657
:1000D000380500200448804704480047FEE7FEE753
:1000E000FEE7FEE7FEE7FEE739130008BD00000863
:1000F00030B50B46014600202022012409E00D46C0
:10010000D5409D4205D31D469540491B2546954047
:1001100040191546521E002DF1DC30BDF0B51FB45C
:100120000646002082B005464024019100901BE065
:10013000019922460F46304600F020F8049A059BAC
:10014000801A994110D310461946224600F0DFF874
:10015000361A8F410197224601200021009F00F0AE
:10016000D6F838184D4100902046641E0028DFDC88
:10017000019B00982946324607B0F0BD10B5202AF1
:1001800004DB0846203AD040002110BD0B46D34086
:10019000D0402024A21A91400843194610BDD2B283
:1001A00001E00270401C491EFBD270470022F6E7B6
:1001B00010B513460A4604461946FFF7F0FF2046DD
:1001C00010BD421C0178401C0029FBD1801A7047E9
:1001D000F0B51FB488B00B990998002448400999DC
:1001E000C00F490049080991C0070B9900904900C8
:1001F00049080B9109990898A64608431CD00B9909
:100200000A98084318D0099801244000420D48007C
:10021000410D099824050003000B204309900B9819
:100220000003000B20430B9050181C49401800227B
:1002300001901446104605E0002001460DB0F0BDC7
:10024000032801DA034600E003239C46C11A0AAEE4
:100250000AE05F0008ADED5B4F00F75B7D430027D0
:10026000AA187C41491C5B1E6145F2DD410004ABCC
:100270005A522104120C0A43240C401C0828DFDBCC
:10028000019802900099704601910090059B049A94
:100290000799069800F099F8D0E700000DFCFFFFE1
:1002A00010B500229623114600F049F810BDC20F88
:1002B000D207400040080BD0C10D0723DB01C9184D
:1002C00040020905400A1143C20840071143704724
:1002D000002001467047CB0FDB07490010B54908E5
:1002E00002460A4307D00A0D07240903E401090B5B
:1002F000121B002A01DC002010BDC900440F0C4372
:10030000C100E018D205801800F011F810BD10B53A
:10031000202A04DB0146203A9140002010BD914084
:1003200020239C1A0346E3401943904010BD002946
:1003300004DA401C490001D140084000704770B405
:100340000024050C05D11024000402D1002921D07D
:100350001124050E01D100020834050F01D100015E
:10036000241D850F01D18000A41C002801DB400062
:10037000641C002908D020252E1B0D46F540A14005
:1003800000D001212943084301061B1B000ADB1D85
:1003900002D5002070BC7047DB05181880180029B2
:1003A000F8DA401C4900F5D170BC400840007047A5
:1003B00010B5002B08DA0024401C614192185B4103
:1003C0001A4301D14008400010BDF0B51FB482B0FF
:1003D00005460C0003D0084601F0CCF902E001F01C
:1003E000C9F920300246009021462846FFF78FFFCA
:1003F000049B059A04460F4618431143084314D042
:10040000184610431BD0009840210A1A1846059937
:10041000FFF7B4FE05460E46009A05990498FFF7CB
:1004200076FF084305D0012004E02046394607B096
:10043000F0BD0020C11705430E432C4337430099FC
:100440000E986305401A7905E40A00220C43FD0A60
:100450000A3002D500200146E9E70105101969417B
:100460000C9C0D9D00196941FFF7A2FFDFE700001A
:10047000F0B507460846584087B0C00F04904800C2
:100480000E46590040084908BC1A884105D2384632
:1004900031461E4617460B46024658004008104398
:1004A0004DD0300D039040055900400D490D059089
:1004B000401A0290402873DA18030121000B090545
:1004C0000843019004980092002806D01146019A32
:1004D00049420020904100910190029840210A1A5F
:1004E00001990098FFF713FF05460C466B4607CBB2
:1004F00000F030F9C0197141039A0E0D0023D7178F
:1005000056401A467A40164344D0049A002A2DD009
:10051000029A012A039A15DC1205C01A914101269C
:100520003605001C7141D20F059ED207009301923F
:1005300002962A462346FFF748FF07B0F0BD38462B
:100540003146FAE71605234A0F46B218C01AB741DA
:1005500001210905001C4F4100187F411146181860
:100560007941E20F10436D19644113E0E2076D0811
:1005700015436408C2071443039A01261205C01AE2
:1005800091413605001C7141CE07400830434908AF
:10059000C01851412A462346FFF70AFFCDE7FFE77F
:1005A000049801224000C117121A00238B410498BD
:1005B0003146C417381AA141EEE730B40124E407EC
:1005C000634030BC54E730B40124E407614030BCE0
:1005D0004EE700000000E0FFF0B50C465C4085B03F
:1005E000E40FE40703944C00002664085900944685
:1005F000490802460296224321D062460A431ED091
:100600006200570D4A000E032303550D01240246D4
:100610002C492405781B1B0B360B4018234326431B
:10062000614600901C46501AB44103D30098401C08
:10063000009002E0921800985B41002803DA002045
:10064000014605B0F0BD0020012109050746864698
:1006500011E064461D46141BB54106D36546521B86
:10066000B341744607430C43A646CD0740084908EA
:10067000284392185B4105460D43EAD110461843C2
:1006800013D06046194650407140084306D060467A
:10069000101AB34106D20122002306E000220123F2
:1006A000DB0702E00122D243531000987446010593
:1006B000381C6141029C039D00196941FFF778FED7
:1006C000BFE70000FD0300004A0009030123090BF6
:1006D0001B0519430A4B10B5520D9A4202DA00204D
:1006E000014610BD064B34339A4203DC9A1AFFF7D9
:1006F00045FD10BD034BD218FFF709FE10BD0000E9
:10070000FF030000CDFBFFFF10B5002904DB01242F
:10071000E40740428C412146002B04DB1C460123A8
:10072000DB075242A341994200D1904210BD000024
:10073000064C0125064E05E0E36807CC2B430C3C34
:1007400098471034B442F7D3FFF7BCFC6C22000882
:100750008C22000810B5202A06DBCB170846203A69
:100760001041C1170B4306E00B461341D040202433
:10077000A21A91400843194610BD000070B5044606
:1007800000F0D2F80546601C02D004480078241816
:1007900000F0CAF8401BA042FAD370BD040000204C
:1007A000FCB500230124A1E027462A469F403A4099
:1007B00073D04D68012D05D0022D03D0112D01D02D
:1007C000122D16D185680326AC465D00AE46AE40BC
:1007D0006546B543AC46CE687546AE4065462E4389
:1007E000866046680D79BE43ED06ED0F9D403543AA
:1007F0004560C6685F000325BD40AE46AE43354642
:100800008E68BE402E43C6604E68022E01D0122E66
:1008100014D1DE08B60036180196366A5D07B44674
:10082000EE0E0F25B54000966646AE43B4460D6900
:10083000009EB54066462E43019D2E6206687546B1
:10084000AE430D79AD07AD0FBD40354305604D6832
:10085000ED004AD5284DAE692643AE61AD699E08CC
:10086000ED07ED0F0095254DB6007519AC46AD6846
:100870009E07360F0F27B740BD430927FF06B84232
:1008800001D1002710E01E4FB84201D101270BE033
:100890001C4FB84202D1022706E026E01A4FB842A8
:1008A00001D1032700E00527B7402F436546AF601D
:1008B000164E35684F689543FF0300D515433560E4
:1008C00075684F689543BF0300D515437560B568DB
:1008D0004F689543FF0200D51543B560F5684F6832
:1008E0009543BF0200D51543F5605B1C0A681546A9
:1008F000DA4000D058E7FCBD001002400000014083
:100900000004004800080048000C004800040140B2
:100910000069084000D001207047002A01D08161A1
:10092000704781627047000001488068704700008E
:1009300004000020024881680278891881607047AD
:100940000400002010B50648016810221143016020
:10095000002000F007F800F027F8002010BD00008C
:100960000020024070B504460D4D7D202978C0005E
:10097000FFF7BEFB01460B480068FFF7B9FB00F02C
:10098000C3FA002809D1042C07D200222146401EB8
:1009900000F01EF800206C6070BD012070BD0000EA
:1009A000040000201000002008B5084881690122D9
:1009B00011438161816911400091C26901040A43B8
:1009C000C261C0690840009008BD000000100240EC
:1009D00010B500F0FFFE10BDF8B50F46060059D067
:1009E0003A4D2868C007C00FB84209D228684008AD
:1009F0004000384328602868C007C00FB84249D17A
:100A00003068334C81070CD5400704D56068072156
:100A10000902084360606068F0218843B1680843B8
:100A200060603078C00726D0706801280ED0216839
:100A300002280ED0890700292CDA6168890889000C
:100A400001436160FFF770FF00900DE021688903AA
:100A5000F1E78901EFE7FFF767FF0099411A1D48A9
:100A6000814201D90320F8BD60680C2108407168FB
:100A700089008842EFD12868C007C00FB8420BD95F
:100A8000286840084000384328602868C007C00F25
:100A9000B84201D00120F8BD3078400706D5606823
:100AA000072109028843F1680843606000F028F8D4
:100AB0006168094A0906090F515CC8400749086086
:100AC0000020FFF74FFF0020F8BD0000002002408B
:100AD000001002408813000054220008100000207B
:100AE0000448054900684968044A4905490F515CB2
:100AF000C840704710000020001002406422000827
:100B000010B514A30FCB88B06C460FC415A30FCB40
:100B10000FC4184A51680C200B4603401648042B9A
:100B200016D0082B14D18B021B0F6C46E45CD26AE2
:100B300004AB1207120F9A5CC90305D500231946AE
:100B4000FFF7ECFA214601E020460C4900F029FEAF
:100B500008B010BD02030405060708090A0B0C0DB6
:100B60000E0F10100102030405060708090A0B0CFA
:100B70000D0E0F100010024000127A0000093D0017
:100B8000FEB5040070D02078DC4DC0074AD06868FC
:100B90000007800F012807D068680007800F02282F
:100BA00009D16868C00306D5286880033AD5606813
:100BB0000028E7D036E06168012914D001208004C4
:100BC000002901D0052914D02A68012109048A438B
:100BD0002A602968814329606068002816D0FFF7E1
:100BE000A3FE06460EE02868012109040843286098
:100BF000F2E7296801432960F5E7FFF795FE801BBE
:100C000064286ED828688003F7D50BE0FFF78CFEC8
:100C1000064604E0FFF788FE801B6428F1D82868A8
:100C20008003F7D420780126800700283CDA686822
:100C30000007800F07D068680007800F022809D1DD
:100C40006868C00306D42868800716D5E0680128C4
:100C50000AD112E0E0680028286816D030432860E6
:100C6000FFF762FE074605E043E1FFF75DFEC01BAC
:100C70000228C6D828688007F7D52868F821884355
:100C80002169C900084328600EE040084000286040
:100C9000FFF74AFE074604E0FFF746FEC01B0228A6
:100CA000AFD828688007F7D42078000722D5E069FC
:100CB0000028686A0ED030436862FFF735FE0746A9
:100CC00004E0FFF731FEC01B02289AD8686A80074B
:100CD000F7D50FE0400840006862FFF725FE0746A1
:100CE00005E09DE0FFF720FEC01B022889D8686A56
:100CF0008007F7D4207804274007002860DA002016
:100D00000190E869C00008D4E969B8060143E961C7
:100D1000E969014001200091019079480168C90505
:100D200011D40168821511430160FFF7FDFD0090A9
:100D300005E0FFF7F9FD0099401A642870D8704863
:100D40000068C005F5D5A06801280AD0002801D0A8
:100D5000052810D0286A400840002862286AB84355
:100D600001E0286A30432862A068002812D0FFF70B
:100D7000DBFD00900AE0286A38432862F1E7FFF7BC
:100D8000D3FD0099411A5F48814249D8286A8007FB
:100D9000F5D50DE0FFF7C8FD009006E0FFF7C4FDB4
:100DA0000099411A574881423AD8286A8007F5D4F9
:100DB0000198002804D0E969012000078143E96116
:100DC0002078C00635D5606901280CD0401D686BBD
:100DD00023D038436863686B400840006863FFF7BE
:100DE000A3FD064622E0686B38436863686B3043B6
:100DF0006863FFF799FD064604E0FFF795FD801B49
:100E000002285BD8686B8007F7D5686BF8218843A8
:100E1000A169C900084368630BE0B8436863F4E75D
:100E20004CE0FFF781FD801B022847D8686B8007E4
:100E3000F7D4206A00285ED069680907890F022963
:100E400042D0012636060228286805D0B043286023
:100E5000FFF76AFD044633E0B0432860FFF764FD06
:100E6000074604E0FFF760FDC01B022826D828686B
:100E70008001F7D4E86AE16A000900010843E862EA
:100E8000616AA06A084369683D22120491430843DD
:100E90006860286830432860FFF746FD044604E098
:100EA000FFF742FD001B022808D828688001F7D50B
:100EB00021E0FFF739FD001B022801D90320FEBD08
:100EC00028688001F5D416E00128F8D06868E96A3E
:100ED00001221204636A02409A420AD10907E26AB7
:100EE000090F914205D10F2189040840A16A884267
:100EF00001D00120FEBD0020FEBD00000010024018
:100F00000070004088130000094910B5401E884257
:100F100001D9012010BD074C60610321081F00F0BA
:100F200059FC0020A06107202061002010BD0000B6
:100F3000FFFFFF0000E000E0F0B502462032137F23
:100F4000012B21D001251577022353770668746899
:100F5000B3687027BC430F682743776000680B4C69
:100F6000A04208D0AC07A04205D0094CA04202D054
:100F7000084CA04204D180244968A34319438160EE
:100F8000557700201077F0BD0220F0BD002C014005
:100F9000000400400040014070B5040005D0254623
:100FA0002035687F002802D006E0012070BD0020B7
:100FB0002877204600F00AF802206877211D206873
:100FC00000F0BCF901206877002070BD08B500680A
:100FD0000549884207D10548C26902210A43C26116
:100FE000C0690840009008BD0004004000100240A5
:100FF000F8B5054604462035287F012817D001267C
:101000002E7702206877226890687727FF23B843FD
:101010001B02984390600A68502A31D00EDC202AC7
:101020004BD006DC002A48D0102A3AD145E00220F5
:10103000F8BD302A41D0402A33D136E0602A27D08B
:10104000702A12D001200003121A2AD0824228D11D
:10105000CB684A688968206800F0BAF9206881681E
:1010600001229203114381601BE0CB684A688968C2
:10107000206800F0ADF9216888683843886010E086
:10108000CA684968206800F0B6F95021206806E077
:10109000CA684968206800F0BFF96021206800F044
:1010A000A2F96E7700202877F8BDCA6849682068E1
:1010B00000F0A1F940212068F1E711462068EEE731
:1010C00010B5040003D0606F002802D007E00120B3
:1010D00010BD002170200155204600F027F8242083
:1010E000606720680168490849000160204600F0F7
:1010F0003BFA0128ECD0606A002802D0204600F0BC
:101100009EF9206841680922D2029143416020681B
:1011100081682A229143816020680168012211437D
:101120000160204600F0F0F910BD000010B586B057
:10113000044614216846FFF739F8124920688842AE
:101140001DD11148C269012149040A43C261C26923
:101150000A40059242690A4342614069084005908D
:101160000C200090022001900020029003200390A8
:101170000120049009206946C006FFF711FB06B064
:1011800010BD00000044004000100240FFB50446BE
:10119000406F83B017460D4620285CD1002D0AD041
:1011A000002F08D0A168C001814207D12069002822
:1011B00004D1E80702D0012007B0F0BD204660301E
:1011C0000290007C012846D0029801210174002081
:1011D000E06721206067FFF7A7FB264640360190B5
:1011E000378277820120A1680003814202D1206901
:1011F000002802D02F46002511E000270FE0002232
:101200008021204600F054FA002815D1002F15D077
:101210002168387808857F1C708A401E7082708A29
:10122000019B002806980090E9D100224021204629
:1012300000F03EFA002808D00320BDE72888216886
:10124000C005C00D0885AD1CE6E720206067029947
:1012500000200874B0E70220AEE7FEE710B586B0C4
:1012600000240094104801940294039404940D49BE
:10127000059401602F218460416004610B49846101
:10128000C160FFF789FE012000030090694606480F
:10129000FFF7AEFE049404A903480594FFF74CFE43
:1012A00006B010BD0004004014000020FFFF000045
:1012B00010B50A4808490160E12149024160002156
:1012C0008160C16001618161C1610C220162426182
:1012D0004162FFF7F5FE10BD0044004054000020BD
:1012E00070477047704710B5FFF724FB10BD30B54D
:1012F00091B030216846FEF759FF00240D9401207B
:1013000003900E9402251020099404900095052066
:101310000F94C0040A900C9408950B946846FFF74C
:101320002FFC07200C900E9401210D950F940CA812
:10133000FFF752FB11B030BD70470000F0B50268F6
:101340001D4B0124A4071D4D984203D0A04201D09B
:10135000A84203D17026B2434E683243184E194F4B
:1013600098420DD0A0420BD0A84209D0164CA04202
:1013700006D0B04204D0B84202D0144CA04204D1EE
:1013800003242402A243CC6822438024A2434C6954
:10139000224302608A68C2620A688262984206D06A
:1013A000B04204D0B84202D0084A904201D1096943
:1013B000016301214161F0BD002C014000040040A7
:1013C000004001400044014000200040004801402E
:1013D00030B58468FF252D021B021343AC430B4339
:1013E0002343836030BD826870239A430A430721F8
:1013F0000A438260704730B5036A046A6408640077
:1014000004628469F025AC43120122430A24A343F9
:101410000B438261036230BD30B5036A1024A343DD
:1014200003628469036A0F252D031203AC43224330
:10143000A024A343090119438261016230BD10B5A4
:10144000818CC90707D001684A6801235B049A436D
:10145000836A1A434A60818C890707D501684A6804
:1014600001231B049A43C36A1A434A60818C4907CB
:1014700007D501684A6801239B049A43036B1A430A
:101480004A60818C090707D501684A680123DB039C
:101490009A43436B1A434A60818CC90607D5026898
:1014A000916801231B039943836B19439160818CDD
:1014B000890607D501688A6801235B039A43C36BD9
:1014C0001A438A60818C490612D503685A68012143
:1014D0000905046C8A4322435A60026C8A4207D190
:1014E0000268516803235B059943436C19435160BB
:1014F000818C090607D501684A680123DB04806CEA
:101500009A4302434A6010BDF8B500260446C667F8
:10151000FFF70AFA054620680068124F000709D550
:1015200001212B46002249052046009700F0C0F813
:1015300000280DD12068006840070BD501212B46FB
:10154000002289052046009700F0B2F8002801D05B
:101550000320F8BD20206067A06760342674002057
:10156000F8BD0000FFFFFF0170B5044680682169E7
:10157000E269084361690025114322680843116844
:10158000444B19400143116021684868032212034B
:101590009043E26810434860A169206A22680843CA
:1015A00091680B231B029943014391603A492068DB
:1015B000884210D13948006B8007800F11D0012874
:1015C00005D0022805D003280AD1022009E0042012
:1015D00007E0082005E03249884201D1002000E000
:1015E00010200122E169D2032E4E914228D1002819
:1015F00006D0022807D0042817D0082844D11AE0C2
:10160000FFF76EFA13E06168274A48088018FEF772
:101610006FFD80B201461039B14235D82149491CCD
:1016200001400007400F084321E0FFF769FA6168B5
:1016300040004A08EAE76168012248081204E5E729
:10164000002806D0022807D0042813D008281BD170
:1016500016E0FFF745FA0FE06168144A480811E008
:10166000FEF746FD80B201461039B1420CD8216820
:10167000C8600AE0FFF744FA61684A081018EFE70B
:10168000616848088018EBE7012500202066606645
:10169000284670BDF369FFFF00380140001002408A
:1016A00000440040EFFF00000024F40000127A0024
:1016B000FFB581B005460F46044660350A9E38E006
:1016C000701C36D0FFF730F90499401AB04221D887
:1016D000002E1FD02068016849072AD5C069C04381
:1016E000000526D401202168C00208622068016834
:1016F000FF22A132914301602068816849084900B6
:10170000816020206067A067E067002028740320C4
:1017100005B0F0BD20680168FF22A132914301604D
:101720002068816849084900816020206067A067BF
:10173000EBE72068C1693846884305D0002103984B
:101740008142BDD00020E3E70121F8E70FB410B5D6
:1017500004A9074B02AA039800F028F9044602A93D
:10176000002000F0C1FC204610BC08BC04B01847A3
:10177000E92000082021020C01D010211046020AA5
:1017800001D010460839020901D01046091F82080D
:1017900001D01046891E420801D0881E7047081AE1
:1017A0007047F8B5040C8BB2264682B25E430D0C2E
:1017B0001046370C584336048019002179411646EB
:1017C0006E43370C36048019794126466E438919D9
:1017D000F8BD00008307FF22DB0E9A408907090E3F
:1017E0009940002808DB830809489B001B181868EB
:1017F00090430843186070470007000F08388308BB
:1018000004489B001B18D86990430843D86170476F
:1018100000E400E000ED00E002E008C8121F08C18B
:10182000002AFAD170477047002001E001C1121F61
:10183000002AFBD170470000F0B51FB486B00998AC
:10184000089A030D0021024314D05148514A181838
:10185000504305141198012810981AD0281A401CDA
:1018600000264D4F4D49009601910490002812DA50
:10187000444211E01198012449A3012801D1109894
:10188000C1430698119A84600360C26041600BB046
:10189000F0BD4042E4E70446210500203F4A001C19
:1018A00051410391029012E0E00707D032463B46D7
:1018B00001990098FEF78CFC0191009032463B465E
:1018C00010461946FEF784FC06460F466410002CAD
:1018D000EAD10498039B0028029A0999089806DA2D
:1018E000FEF776FC019B009AFEF772FC05E0FEF71E
:1018F00073FE019B009AFEF76FFE04460E4600221F
:10190000284BFEF701FF03D80020C043014607E043
:101910000022254B20463146FEF7AAFDFEF7D4FEF5
:10192000102409E0002C0ADB0A220023FEF7F6FB54
:10193000079B30321A55641E02460A43F2D1112227
:10194000641C079B121B1C19119B012B03D0012344
:1019500008430ED10AE0084304D011201090002063
:10196000119077E71098151A6D1E0BE010988242BF
:1019700002DD00236D1C03E0824201DA00236D1EAC
:10198000002BEED0069811998260C16030C07EE7CE
:1019900001FCFFFF104D0000000014400000F03F6C
:1019A000300000000000F0430000E03FFFB597B0BA
:1019B000064600251BE2252876D100242746F74954
:1019C000049400E00443761C32780120203A9040D1
:1019D0000842F7D130782A280ED00222307801460A
:1019E0003039092916D804990A2359433039401847
:1019F0001443761C0490F1E7189802C804911890DB
:101A0000002904DA012040030443484204900220E4
:101A10000443761C30782E2814D1042004437078B7
:101A2000761C2A2809D11898761C80C8189009E0DD
:101A30000A214F43303FC719761C307801463039B0
:101A40000929F5D930786C2810D006DC4C281AD03A
:101A500068280ED06A2817D104E0742813D07A2899
:101A600012D110E00120400504430CE001210905DA
:101A700001E0032109050C437178814203D1012063
:101A800000052418761C761C307866280BD013DCF1
:101A900058287DD009DC00287BD04528F6D0462880
:101AA000F4D047281AD1A9E118E0632835D064287A
:101AB00070D0652812D1A1E170286CD008DC6728AD
:101AC000F1D069287DD06E280DD06F2806D1BCE0FA
:101AD00073282ED0752873D0782859D01A9A19995E
:101AE00090476D1C82E16002400F022809D0032854
:101AF0000DD00428189801680DD00D60001D1890B5
:101B000074E11898EA1701680D604A60F6E71898C2
:101B100001680D80F2E70D70F0E718986A460178C9
:101B20001172001D18900020507202A80090012030
:101B300005E0189802C8189000200091C043610782
:101B40000ED5002101E00199491C0191B94213DA37
:101B50008142F8DB019A0099895C0029F3D10BE0FE
:101B6000002101E00199491C01918142FADB019AAF
:101B70000099895C0029F5D1019904981A9B471AAC
:101B800021463846199A00F099FA4019019903E064
:101B900051E030E115E050E0451807E00098009969
:101BA0000078491C00911A9A199990470198401E93
:101BB0000190401CF2D1214638461A9B199A12E135
:101BC00037E00A200021009001916002410F0229B4
:101BD00007D0189A01CA1892C2179446032908D050
:101BE0000AE01898C01DC108C90005C9189194469B
:101BF00007E000B2C2179446042902D140B2C117CF
:101C00008C4600226146944506DA0A46002140428D
:101C100091418C462D2102E0210504D52B216A46F5
:101C20001173012103E0E10701D02021F7E70291C0
:101C300056E00A200AE0102008E010200090002161
:101C4000042004430191082703E0082000210191AA
:101C500000906002410F022907D0189A01CA189219
:101C600000229446032908D008E01898C01DC10836
:101C7000C90005C91891944603E080B2042900D137
:101C8000C0B20021029121072AD531780D91702927
:101C900006D0009A1021019B4A401A4305D00EE05D
:101CA00040216A461173012108E06146014306D0D4
:101CB00030216A4611730D99517302210291009AE5
:101CC0000821019B4A401A430AD16146014301D1D0
:101CD000610705D530216A46117301217F1E0291EB
:101CE0003178582904D02EA10E910DA90D910DE047
:101CF00030A1F9E76146019B009AFEF70FFA0E9BAF
:101D00008C469B5C0D9A521E0D92137061460143E6
:101D1000F0D10D9805A9081A20300190600703D56D
:101D200001200004844300E001270198874201DD7F
:101D3000381A00E000200199009041180298091813
:101D40000498401A0490E00306D421461A9B199A7D
:101D5000049800F0B3F94519002706E003A81A9A81
:101D6000C05D199990476D1C7F1C02988742F5DB76
:101D7000E0030CD521461A9B199A049800F09EF9AD
:101D8000451904E01A9A3020199990476D1C009962
:101D9000481E00900029F5DC1FE000000928010022
:101DA00030313233343536373839616263646566D1
:101DB0000000000030313233343536373839414293
:101DC00043444546000000000D980D990078491CD9
:101DD0000D911A9A199990476D1C0199481E01900E
:101DE0000029F1DC4DE100F059F94519761C3078F5
:101DF000002800D0DFE528461BB0F0BD600700D406
:101E000006271898C01DC108C90048680A6808312B
:101E1000C30FDB071891190001D09CA108E0210530
:101E200001D59BA104E0E10701D09AA100E09AA1AD
:101E30004300109130785B0865280CD006DC4528FB
:101E400009D046281DD0472841D141E0662818D046
:101E500067283CD13CE00021112F01DB112000E07C
:101E6000781C0191009008A911A8FFF7E5FC1399CF
:101E700005910021119A15927F1C129801970091EB
:101E800050E00120C00703900120019008A90097AD
:101E900011A8FFF7D1FC139A149905920022119B07
:101EA000009212981593059A0192002901D01046CC
:101EB00002E0791C40180190381A01D5019804E01D
:101EC0004042401E0090781C0190C01B029043E0ED
:101ED000012F00DA01270021112F01DD112000E080
:101EE00038460191009008A911A8FFF7A5FC1399A5
:101EF0000591119A002112981592009101972107DE
:101F00000CD40599B94201DB019900E00191012946
:101F100004DD159A491E515C302906D0B84201DA19
:101F2000011D05DA0121029115E00199491EEDE735
:101F3000002805DC0099411800910199091A03E075
:101F4000019A411C914200DD01910099401A401C08
:101F500002900120C0070390200706D4029901983F
:101F6000814202DB0020C043029000206946C8770E
:101F700007AF012103980337C907884224D0022004
:101F800011902B201290039800280CDA4042039005
:101F90002D20129007E00A210398FEF7A9F83031AE
:101FA0007F1E039039701199481E11900029F2DCB0
:101FB00003980028EFD1791E1298087030782021FC
:101FC00008404530BF1E387006A8C01BC01D0390D6
:101FD00010980078002800D001200199411802983B
:101FE000C0170918039809180498401A401E049055
:101FF000E00306D421461A9B199A049800F05EF873
:10200000451910980078002803D01A9A199990471A
:102010006D1CE00324D521461A9B199A049800F000
:102020004DF845191CE00098002807DB0099059839
:10203000884203DD1598405C199901E01999302018
:102040001A9A904700986D1C401C00900298401E00
:102050000290002804D11A9A2E20199990476D1CDD
:102060000199481E01900029DDDC05E038781A9AB4
:102070007F1C199990476D1C0399481E03900029F5
:10208000F4DC21461A9B199A0498ACE62D00000056
:102090002B0000002000000000000000F8B50446FE
:1020A00000251E461746880404D405E03946202042
:1020B000B0476D1C641EF9D52846F8BDFFB504462F
:1020C000002581B01E46C80301D5302700E0202737
:1020D000880404D505E038460399B0476D1C641E9A
:1020E000F9D5284605B0F0BD0A68531C0B60107086
:1020F0007047000086B0FEF725FCFFF7F8F81421C2
:102100006846FEF753F83B484269012149040A43F7
:1021100042614069092608404F12F60605900022E8
:1021200039463046FEF7F9FB012000240190029465
:102130006946009703943046FEF732FB7D00019418
:102140006946304600950294FEF72AFBFFF786F8B1
:10215000FFF7AEF83446002239462046FEF7DDFB95
:10216000032000F05FF8012239462046FEF7D5FB38
:102170000A2000F057F8002239462046FEF7CDFB32
:1021800029462046FEF7C4FB0028F9D0002603E0CC
:102190000220761C00F046F829462046FEF7B8FBE0
:1021A0000128F5D03046FEF77BF8FEF780F8124A9A
:1021B000124BFEF70DF80022114BFEF709F8FEF75F
:1021C0008AF810490860FEF772F802460B460EA125
:1021D0001348FFF7BBFA1248FDF7F3FF104982B22C
:1021E000084664238038FEF7D1FF7D20C000FEF74B
:1021F000C5FAB0E70010024066666666666606408D
:10220000C58F913F0000002044697374616E63655F
:102210002028636D2920203D20252E31660D0A00DF
:10222000D4000020022800D202200949401EC862C2
:10223000012048610A6982430A610A6802430A6010
:102240000869C007FCD00869400840000861704771
:102250000004004000000000000000000102030430
:102260000607080900000000010203048C22000890
:10227000000000201400000018180008A022000828
:1022800014000020240500002818000800000000A9
:1022900001000000040000000000000000127A00AD
:04000005080000BD32
:00000001FF
